{
  "contractName": "Settlement",
  "abi": [
    {
      "inputs": [],
      "stateMutability": "nonpayable",
      "type": "constructor"
    },
    {
      "anonymous": false,
      "inputs": [
        {
          "indexed": false,
          "internalType": "uint256",
          "name": "id",
          "type": "uint256"
        },
        {
          "indexed": true,
          "internalType": "address",
          "name": "sender",
          "type": "address"
        },
        {
          "indexed": true,
          "internalType": "address",
          "name": "receiver",
          "type": "address"
        },
        {
          "indexed": false,
          "internalType": "uint256",
          "name": "amount",
          "type": "uint256"
        },
        {
          "indexed": false,
          "internalType": "bool",
          "name": "settled",
          "type": "bool"
        }
      ],
      "name": "TransactionCreated",
      "type": "event"
    },
    {
      "anonymous": false,
      "inputs": [
        {
          "indexed": false,
          "internalType": "uint256",
          "name": "id",
          "type": "uint256"
        },
        {
          "indexed": false,
          "internalType": "bool",
          "name": "settled",
          "type": "bool"
        }
      ],
      "name": "TransactionSettled",
      "type": "event"
    },
    {
      "inputs": [],
      "name": "owner",
      "outputs": [
        {
          "internalType": "address",
          "name": "",
          "type": "address"
        }
      ],
      "stateMutability": "view",
      "type": "function",
      "constant": true
    },
    {
      "inputs": [],
      "name": "transactionCount",
      "outputs": [
        {
          "internalType": "uint256",
          "name": "",
          "type": "uint256"
        }
      ],
      "stateMutability": "view",
      "type": "function",
      "constant": true
    },
    {
      "inputs": [
        {
          "internalType": "uint256",
          "name": "",
          "type": "uint256"
        }
      ],
      "name": "transactions",
      "outputs": [
        {
          "internalType": "uint256",
          "name": "id",
          "type": "uint256"
        },
        {
          "internalType": "address",
          "name": "sender",
          "type": "address"
        },
        {
          "internalType": "address",
          "name": "receiver",
          "type": "address"
        },
        {
          "internalType": "uint256",
          "name": "amount",
          "type": "uint256"
        },
        {
          "internalType": "bool",
          "name": "settled",
          "type": "bool"
        }
      ],
      "stateMutability": "view",
      "type": "function",
      "constant": true
    },
    {
      "inputs": [
        {
          "internalType": "address",
          "name": "_receiver",
          "type": "address"
        },
        {
          "internalType": "uint256",
          "name": "_amount",
          "type": "uint256"
        }
      ],
      "name": "createTransaction",
      "outputs": [],
      "stateMutability": "nonpayable",
      "type": "function"
    },
    {
      "inputs": [
        {
          "internalType": "uint256",
          "name": "_id",
          "type": "uint256"
        }
      ],
      "name": "settleTransaction",
      "outputs": [],
      "stateMutability": "nonpayable",
      "type": "function"
    },
    {
      "inputs": [
        {
          "internalType": "uint256",
          "name": "_id",
          "type": "uint256"
        }
      ],
      "name": "getTransaction",
      "outputs": [
        {
          "components": [
            {
              "internalType": "uint256",
              "name": "id",
              "type": "uint256"
            },
            {
              "internalType": "address",
              "name": "sender",
              "type": "address"
            },
            {
              "internalType": "address",
              "name": "receiver",
              "type": "address"
            },
            {
              "internalType": "uint256",
              "name": "amount",
              "type": "uint256"
            },
            {
              "internalType": "bool",
              "name": "settled",
              "type": "bool"
            }
          ],
          "internalType": "struct Settlement.Transaction",
          "name": "",
          "type": "tuple"
        }
      ],
      "stateMutability": "view",
      "type": "function",
      "constant": true
    }
  ],
  "bytecode": "0x6080604052600060015534801561001557600080fd5b50336000806101000a81548173ffffffffffffffffffffffffffffffffffffffff021916908373ffffffffffffffffffffffffffffffffffffffff160217905550610aa7806100656000396000f3fe608060405234801561001057600080fd5b50600436106100625760003560e01c806319062b8f146100675780631e7f8f0f1461008357806333ea3dc81461009f5780638da5cb5b146100cf5780639ace38c2146100ed578063b77bf60014610121575b600080fd5b610081600480360381019061007c91906106c3565b61013f565b005b61009d60048036038101906100989190610687565b610291565b005b6100b960048036038101906100b491906106c3565b61044b565b6040516100c69190610889565b60405180910390f35b6100d7610553565b6040516100e4919061082e565b60405180910390f35b610107600480360381019061010291906106c3565b610577565b6040516101189594939291906108bf565b60405180910390f35b6101296105fa565b60405161013691906108a4565b60405180910390f35b60008054906101000a900473ffffffffffffffffffffffffffffffffffffffff1673ffffffffffffffffffffffffffffffffffffffff163373ffffffffffffffffffffffffffffffffffffffff16146101cd576040517f08c379a00000000000000000000000000000000000000000000000000000000081526004016101c490610849565b60405180910390fd5b60006002600083815260200190815260200160002090508060040160009054906101000a900460ff1615610236576040517f08c379a000000000000000000000000000000000000000000000000000000000815260040161022d90610869565b60405180910390fd5b60018160040160006101000a81548160ff0219169083151502179055507fc04b81c225b16961f8abcf907a5452ee12ea97eabf7b35e4e335b59323184600826001604051610285929190610912565b60405180910390a15050565b600160008154809291906102a4906109cb565b91905055506040518060a0016040528060015481526020013373ffffffffffffffffffffffffffffffffffffffff1681526020018373ffffffffffffffffffffffffffffffffffffffff168152602001828152602001600015158152506002600060015481526020019081526020016000206000820151816000015560208201518160010160006101000a81548173ffffffffffffffffffffffffffffffffffffffff021916908373ffffffffffffffffffffffffffffffffffffffff16021790555060408201518160020160006101000a81548173ffffffffffffffffffffffffffffffffffffffff021916908373ffffffffffffffffffffffffffffffffffffffff1602179055506060820151816003015560808201518160040160006101000a81548160ff0219169083151502179055509050508173ffffffffffffffffffffffffffffffffffffffff163373ffffffffffffffffffffffffffffffffffffffff167fdc66c0e7415dadecf5a2a58f76ee7c110e2aca2dd2ce7958fee0aa01d77dc1d860015484600060405161043f9392919061093b565b60405180910390a35050565b610453610600565b600260008381526020019081526020016000206040518060a0016040529081600082015481526020016001820160009054906101000a900473ffffffffffffffffffffffffffffffffffffffff1673ffffffffffffffffffffffffffffffffffffffff1673ffffffffffffffffffffffffffffffffffffffff1681526020016002820160009054906101000a900473ffffffffffffffffffffffffffffffffffffffff1673ffffffffffffffffffffffffffffffffffffffff1673ffffffffffffffffffffffffffffffffffffffff168152602001600382015481526020016004820160009054906101000a900460ff1615151515815250509050919050565b60008054906101000a900473ffffffffffffffffffffffffffffffffffffffff1681565b60026020528060005260406000206000915090508060000154908060010160009054906101000a900473ffffffffffffffffffffffffffffffffffffffff16908060020160009054906101000a900473ffffffffffffffffffffffffffffffffffffffff16908060030154908060040160009054906101000a900460ff16905085565b60015481565b6040518060a0016040528060008152602001600073ffffffffffffffffffffffffffffffffffffffff168152602001600073ffffffffffffffffffffffffffffffffffffffff168152602001600081526020016000151581525090565b60008135905061066c81610a43565b92915050565b60008135905061068181610a5a565b92915050565b6000806040838503121561069a57600080fd5b60006106a88582860161065d565b92505060206106b985828601610672565b9150509250929050565b6000602082840312156106d557600080fd5b60006106e384828501610672565b91505092915050565b6106f581610983565b82525050565b61070481610983565b82525050565b61071381610995565b82525050565b61072281610995565b82525050565b6000610735601283610972565b91507f4e6f7420636f6e7472616374206f776e657200000000000000000000000000006000830152602082019050919050565b6000610775601b83610972565b91507f5472616e73616374696f6e20616c726561647920736574746c656400000000006000830152602082019050919050565b60a0820160008201516107be6000850182610810565b5060208201516107d160208501826106ec565b5060408201516107e460408501826106ec565b5060608201516107f76060850182610810565b50608082015161080a608085018261070a565b50505050565b610819816109c1565b82525050565b610828816109c1565b82525050565b600060208201905061084360008301846106fb565b92915050565b6000602082019050818103600083015261086281610728565b9050919050565b6000602082019050818103600083015261088281610768565b9050919050565b600060a08201905061089e60008301846107a8565b92915050565b60006020820190506108b9600083018461081f565b92915050565b600060a0820190506108d4600083018861081f565b6108e160208301876106fb565b6108ee60408301866106fb565b6108fb606083018561081f565b6109086080830184610719565b9695505050505050565b6000604082019050610927600083018561081f565b6109346020830184610719565b9392505050565b6000606082019050610950600083018661081f565b61095d602083018561081f565b61096a6040830184610719565b949350505050565b600082825260208201905092915050565b600061098e826109a1565b9050919050565b60008115159050919050565b600073ffffffffffffffffffffffffffffffffffffffff82169050919050565b6000819050919050565b60006109d6826109c1565b91507fffffffffffffffffffffffffffffffffffffffffffffffffffffffffffffffff821415610a0957610a08610a14565b5b600182019050919050565b7f4e487b7100000000000000000000000000000000000000000000000000000000600052601160045260246000fd5b610a4c81610983565b8114610a5757600080fd5b50565b610a63816109c1565b8114610a6e57600080fd5b5056fea2646970667358221220c15d54403b46e962a35faf22329bc8ccd7cb605fce8578645dfd67fbdb9165a864736f6c63430008000033",
  "immutableReferences": {},
  "source": "// SPDX-License-Identifier: MIT\npragma solidity ^0.8.0;\n\ncontract Settlement {\n    address public owner;\n    uint public transactionCount = 0;\n\n    struct Transaction {\n        uint id;\n        address sender;\n        address receiver;\n        uint amount;\n        bool settled;\n    }\n\n    mapping(uint => Transaction) public transactions;\n\n    event TransactionCreated(\n        uint id,\n        address indexed sender,\n        address indexed receiver,\n        uint amount,\n        bool settled\n    );\n\n    event TransactionSettled(\n        uint id,\n        bool settled\n    );\n\n    modifier onlyOwner() {\n        require(msg.sender == owner, \"Not contract owner\");\n        _;\n    }\n\n    constructor() {\n        owner = msg.sender;\n    }\n\n    function createTransaction(address _receiver, uint _amount) public {\n        transactionCount++;\n        transactions[transactionCount] = Transaction(transactionCount, msg.sender, _receiver, _amount, false);\n        emit TransactionCreated(transactionCount, msg.sender, _receiver, _amount, false);\n    }\n\n    function settleTransaction(uint _id) public onlyOwner {\n        Transaction storage txn = transactions[_id];\n        require(!txn.settled, \"Transaction already settled\");\n        // Here you can add logic to transfer funds, interact with ERC20 tokens, etc.\n        txn.settled = true;\n        emit TransactionSettled(_id, true);\n    }\n\n    function getTransaction(uint _id) public view returns (Transaction memory) {\n        return transactions[_id];\n    }\n}\n",
  "sourcePath": "/Users/I526693/Documents/All Projects/BlockchainProject/contracts/settlement.sol",
  "compiler": {
    "name": "solc",
    "version": "0.8.0+commit.c7dfd78e.Emscripten.clang"
  },
  "schemaVersion": "3.4.16",
  "updatedAt": "2024-11-08T10:33:40.098Z",
  "networkType": "ethereum",
  "devdoc": {
    "kind": "dev",
    "methods": {},
    "version": 1
  },
  "userdoc": {
    "kind": "user",
    "methods": {},
    "version": 1
  }
}